:1000000024C0C1C347C046C045C044C043C042C06D
:1000100041C040C03FC06DC33DC03CC03BC03AC0C2
:1000200039C038C037C036C035C034C00EC432C045
:1000300031C030C0D5C32EC02DC03CC4010204085D
:100040001020408004020108690511241FBECFEF73
:10005000D2E0DEBFCDBF11E0A0E0B1E0ECEDFDE00D
:1000600002C005900D92A032B107D9F721E0A0E2BD
:10007000B1E001C01D92AE3DB207E1F710E0C5E26C
:10008000D0E003C02197FE01A1D6C432D107D1F739
:1000900069D5A2C6B5CFE82FF0E0E45CFF4FE4914C
:1000A000883068F4843031F480B78F7380BFA9E35F
:1000B000B0E00FC08530A9F480B78F7CF7CF92E015
:1000C000863089F48FB58F738FBDA6E3B0E0913091
:1000D00071F38C91E82381E090E011F490E080E0EE
:1000E000089591E0EDCF833019F48FB58F7CECCF7C
:1000F000883031F48091CA008F738093CA00E5CFB5
:10010000873019F78091CA008F7CF7CFCF93DF93A8
:10011000E82FF0E0E45CFF4FE491883078F483301E
:1001200019F48FB58F7C8FBDCBE3D0E0A3E6B0E0B0
:1001300010C0F8948881E82BE88314C0883029F433
:100140008091CA008F738093CA00C8E3D0E0A2E612
:10015000B0E09E2F90952FB76111EBCFF894888176
:10016000892388838C9189238C932FBFDF91CF9132
:100170000895CF93DF93E82FF0E0E45CFF4FE49124
:1001800028E330E0A7E3B0E0C2E6D0E0883030F406
:100190002BE330E0AAE3B0E0C3E6D0E08E2F8095F9
:1001A000611110C04FB7F8949C9198239C93F9016A
:1001B0009081982390839881892388834FBFDF9112
:1001C000CF9108952FB7F8949881892388838C91D3
:1001D000E82BEC932FBFF3CF2FB7F8946091310148
:1001E0007091320180913301909134012FBF0895B5
:1001F00081E0809322010895CF92DF92EF92FF92E7
:100200000F931F93CF93DF936C01EB017B01E40EFF
:10021000F51E10E000E0CE15DF0561F06991D60112
:10022000ED91FC910190F081E02DC6010995080F38
:10023000191FF1CFC801DF91CF911F910F91FF904E
:10024000EF90DF90CF900895FC01A289B389258DAE
:1002500081E090E002C0880F991F2A95E2F72C9167
:1002600030E028233923232BD1F30688F789E02DAA
:10027000608381E090E00895DC011C96ED91FC9193
:1002800082A193A191A380A30895DC011C96ED9116
:10029000FC9122A133A180A191A18217930761F063
:1002A000DF01A20FB31F8C912F5F3F4F2F713327B8
:1002B00033A322A390E008958FEF9FEF0895DC0110
:1002C0001C96ED91FC9182A193A120A131A1281748
:1002D000390729F0E80FF91F808190E008958FEF2A
:1002E0009FEF0895DC011C96ED91FC9180A191A1F6
:1002F00022A133A1821B930B8F7199270895CF936D
:10030000DF93DC011C96ED91FC9126A137A12032F0
:10031000310510F5A6A1B7A1C6A1D7A120E230E012
:100320002A1B3B0B4217530708F49A01DB01EC0F21
:10033000FD1FB9016E0F7F1FE617F70719F04D91EA
:100340004193FACFDC011C96ED91FC9186A197A117
:10035000280F391F37A326A3DF91CF910895DC0121
:100360001C96ED91FC9186A197A1809768F486A1D7
:1003700097A19C012F5F3F4F37A326A3E80FF91FDA
:10038000608381E090E0089590E080E00895EF922E
:10039000FF920F931F93CF93DF93EC017C01E60E46
:1003A000F71E10E000E0CE15DF0539F069918FEC03
:1003B00091E0D5DF080F191FF6CFC801DF91CF916B
:1003C0001F910F91FF90EF9008950895DC011C9606
:1003D000ED91FC9120A131A182A193A128173907A9
:1003E00038F480A191A1E80FF91F808190E0089571
:1003F0008FEF9FEF0895DC011C96ED91FC9120A1F9
:1004000031A182A193A12817390760F480A191A19D
:100410009C012F5F3F4F31A320A3E80FF91F80817C
:1004200090E008958FEF9FEF0895DC011C96ED9109
:10043000FC9182A193A120A131A1821B930B08956D
:10044000CF92DF92EF92FF920F931F93CF93DF93A0
:10045000CDB7DEB728970FB6F894DEBF0FBECDBF7D
:1004600080912301803109F064C08AE014DE019795
:1004700009F043C08091260181608093260183E0CA
:100480000ADE0197F1F580912601826080932601B2
:1004900080E001DE0197C9F5809126018460809398
:1004A0002601809122018130A1F58091260188608A
:1004B0008093260187E0EFDD019779F58091260191
:1004C00080618093260188E0E6DD019751F58091F7
:1004D000260180628093260180912B01882329F1D7
:1004E00080912601806480932601609126018FEC23
:1004F00091E035DF109223015BC0809126018E7F51
:10050000BCCF809126018D7FC1CF809126018B7F4A
:10051000C6CF80912601877FCBCF809126018F7E29
:10052000D0CF809126018F7DD5CF809126018F7B02
:10053000DACF809123018D3F99F48DE791E0D2DEEF
:1005400090932101809320018091210189838091E2
:1005500020018A8362E070E0CE01019618DFCACFE5
:10056000809123018F3F21F500912101809120018D
:10057000102F082F0930110598F108501109109318
:100580002101009320018E010F5F1F4F6E0189E052
:10059000C80ED11C78018DE791E077DEF8018193D8
:1005A0008F01EC15FD05B9F768E070E0C701EFDEDB
:1005B00013DE6093270170932801809329019093A3
:1005C0002A0128960FB6F894DEBF0FBECDBFDF918B
:1005D000CF911F910F91FF90EF90DF90CF900895F2
:1005E0000115110509F486CF109221011092200106
:1005F000CE0101967C016C01C6018E199F098017FE
:10060000910738F48DE791E040DEF60181936F01A8
:10061000F3CFB801C701A2CF0F931F93CF93DF93FE
:100620008C0118161906ACF58FEC91E0E4DE80938E
:100630002301803109F03BC00130110551F18FECED
:1006400091E0D9DEEC0161E080FF60E08AE05EDDF0
:1006500061E0C1FF60E083E059DD61E0C2FF60E07E
:1006600080E054DDC3FF1092220186E0D695C79545
:100670008A95E1F7C170C0932B010230110549F052
:10068000C2E0D0E08FEC91E0B6DE21960C171D079A
:10069000C9F7A2DD60932701709328018093290197
:1006A00090932A01DF91CF911F910F9108958F3F71
:1006B00089F40130110569F3C1E0D0E08FEC91E0DD
:1006C0009ADE682F8DE791E0BFDD2196C017D10734
:1006D000ACF3DFCF8D3FE9F601301105D1F2C1E077
:1006E000D0E08FEC91E087DE2196C017D107CCF3E4
:1006F000D0CF1F920F920FB60F9211242F933F93DA
:100700008F939F93AF93BF9380913101909132016A
:10071000A0913301B09134013091300126E0230FD4
:100720002D3768F129E8230F0396A11DB11D2093F1
:1007300030018093310190933201A0933301B09343
:10074000340180912C0190912D01A0912E01B09146
:100750002F010196A11DB11D80932C0190932D01B5
:10076000A0932E01B0932F01BF91AF919F918F91D4
:100770003F912F910F900FBE0F901F9018950296EA
:10078000A11DB11DD4CF1F920F920FB60F9211244D
:100790002F933F934F935F936F937F938F939F9389
:1007A000AF93BF93EF93FF93809124019091250124
:1007B000892B29F0E0912401F09125010995FF9101
:1007C000EF91BF91AF919F918F917F916F915F91C9
:1007D0004F913F912F910F900FBE0F901F90189542
:1007E0001F920F920FB60F9211242F933F934F93A6
:1007F0006F937F938F939F93EF93FF93409190001C
:100800002091550130915601C90101968F719927A8
:1008100060915701709158018617970741F02B5C42
:100820003E4FF90140839093560180935501FF910B
:10083000EF919F918F917F916F914F913F912F9168
:100840000F900FBE0F901F9018951F920F920FB62A
:100850000F9211242F933F934F936F937F938F9316
:100860009F93EF93FF934091800020917901309105
:100870007A01C90101968F71992760917B0170916E
:100880007C018617970741F0275A3E4FF9014083B4
:1008900090937A0180937901FF91EF919F918F91CD
:1008A0007F916F914F913F912F910F900FBE0F90BD
:1008B0001F9018951F920F920FB60F9211242F932D
:1008C0003F934F935F936F937F938F939F93AF93D8
:1008D000BF93CF93EF93FF93C091A3008C2F8C70A5
:1008E00019F18FEF8093C4018091C5019091C601E9
:1008F0009F779093C6018093C5018091A300846C7B
:100900008093A300FF91EF91CF91BF91AF919F9101
:100910008F917F916F915F914F913F912F910F90A8
:100920000FBE0F901F901895C6FD28C08091C5017D
:100930009091C60197FD22C0C7FF6FC0C1FFAFC035
:100940002091C0013091C1018091C2019091C301F9
:100950002817390708F0A1C08091C0019091C1010A
:100960009C012F5F3F4F3093C1012093C0018456FB
:100970009E4FFC0180818093A0004FC0C0FF66C0E5
:100980008091C5019091C60197FF29C08091C50152
:100990009091C6012091A0009695982F8827979551
:1009A000879588279370822B9093C6018093C50109
:1009B000E091C701F091C801309789F11092BD0113
:1009C0001092BC016091C4018091C5019091C60153
:1009D0000995811124C087E08093A40093CF809172
:1009E000A00090E09093C6018093C5018091C4015E
:1009F0008F5F8093C4018091C5019091C601897F6A
:100A00009927803F9105A1F68091C5019091C6017B
:100A100090689093C6018093C50183E0DDCFC1FF4C
:100A200010C01092C3011092C201E091CB01F0916D
:100A3000CC01309709F009951092C1011092C001C4
:100A4000ECCF1092BF011092BE01E7CFC1FF15C0DD
:100A5000E091CD01F091CE01309709F009958FEF2B
:100A60008093C4018091C5019091C6019F779093B6
:100A7000C6018093C50180E443CFE091C901F091A4
:100A8000CA01309761F31092BD011092BC018091B0
:100A9000BE019091BF010995E2CF82E09DCF809188
:100AA000BE019091BF01809790F48091BE0190911A
:100AB000BF019C012F5F3F4F3093BF012093BE01C8
:100AC0002091A00084569E4FFC012083A6CF86E093
:100AD00083CFEDE7F1E01382128288EE93E0A0E08D
:100AE000B0E084839583A683B78324E031E031832B
:100AF000208329E531E03587248722E830E03787F5
:100B0000268721E830E0318B208B26E830E0338BDC
:100B1000228B25E830E0358B248B24E830E0318FC0
:100B2000208F20E830E0378B268B24E0228F23E0D3
:100B3000238F27E0248F25E0258F21E0268FEFECFF
:100B4000F1E01382128284839583A683B78384E1C4
:100B500091E0918380838CE991E09587848710925E
:100B6000DD010895CF93DF9300D01F92CDB7DEB79C
:100B7000789480B7836080BF83B7877F83BF83B754
:100B8000887F836083BF89B7816089BF8091C900F6
:100B9000887F8093C9008091CA008C7F8160809398
:100BA000CA008091C900877E8093C9008091C900E6
:100BB000887F83608093C9008EB5887F8EBD8FB596
:100BC0008C7F81608FBD8EB5877E8EBD8EB5887F10
:100BD00083608EBD80E18093670084EA8093680023
:100BE0008CEF8093660085B1887F866085B92F9AE7
:100BF00061E080E0BEDA60E080E088DA61E083E016
:100C0000B8DA60E083E082DA61E08AE0B2DA60E0DC
:100C10008AE07CDA1092260160E088E0AADA60E0DF
:100C200087E0A7DA60E089E0A4DA61E081E0A1DA98
:100C300060E082E09EDA8FB7F89428EF30E03093DE
:100C40002501209324018FBF85B78C7F826085BFEB
:100C50008BB780648BBFE0918F01F0919001209160
:100C60009B0181E090E0AC0102C0440F551F2A9522
:100C7000E2F74083E0918B01F0918C011082E091CA
:100C80008D01F0918E0123E32083E0919501F09195
:100C9000960126E02083E0919101F091920120815C
:100CA00030919701AC0101C0440F3A95EAF7242B2B
:100CB0002083E0919101F09192012081309198017F
:100CC000AC0101C0440F3A95EAF7242B2083E09150
:100CD0009101F091920120813091990101C0880F1A
:100CE0003A95EAF7822B8083E091DB01F091DC01F9
:100CF00086EC8093A2001092A1008FEF80A78CEB6E
:100D00008093A50081E08093DD018CE093E096A7BD
:100D100085A780E292E090AB87A75EDA6093270117
:100D2000709328018093290190932A0112E3809106
:100D30002B018823A9F150DAAB01BC018091270176
:100D400090912801A0912901B0912A0188519C4FCE
:100D5000AF4FBF4F84179507A607B70708F595B1A2
:100D60002F982AB15398579A3CB16398679A40914B
:100D70007000809170008D658093700085B715BFFD
:100D8000889585BF409370003CB92AB995B924DA9B
:100D900060932701709328018093290190932A0181
:100DA0001B828B818111C3CF1A82198289819A811A
:100DB0008E35914038F4000089819A8101969A839A
:100DC0008983F4CF8B818F5F8B83EBCFEE0FFF1F77
:0C0DD0000590F491E02D0994F894FFCFF9
:100DDC00000000002401FC00720145015F013C0190
:100DEC0000000000AF017F011502FB01E601E501E7
:00000001FF
